{
  "_format": "hh-sol-artifact-1",
  "contractName": "CoinFlip",
  "sourceName": "contracts/CoinFlip.sol",
  "abi": [
    {
      "anonymous": false,
      "inputs": [
        {
          "indexed": false,
          "internalType": "string",
          "name": "result",
          "type": "string"
        },
        {
          "indexed": false,
          "internalType": "uint256",
          "name": "timestamp",
          "type": "uint256"
        },
        {
          "indexed": false,
          "internalType": "uint256",
          "name": "prevrandao",
          "type": "uint256"
        },
        {
          "indexed": false,
          "internalType": "address",
          "name": "sender",
          "type": "address"
        },
        {
          "indexed": false,
          "internalType": "uint256",
          "name": "randomValue",
          "type": "uint256"
        }
      ],
      "name": "FlipOutcome",
      "type": "event"
    },
    {
      "inputs": [],
      "name": "simulateFlip",
      "outputs": [
        {
          "internalType": "string",
          "name": "",
          "type": "string"
        }
      ],
      "stateMutability": "nonpayable",
      "type": "function"
    }
  ],
  "bytecode": "0x608060405234801561001057600080fd5b50610406806100206000396000f3fe608060405234801561001057600080fd5b506004361061002b5760003560e01c80631c454ba914610030575b600080fd5b61003861004e565b60405161004591906101f4565b60405180910390f35b60606000429050600044905060003390506000828483604051602001610076939291906102bb565b6040516020818303038152906040528051906020012060001c90506000806002836100a19190610327565b146100e1576040518060400160405280600581526020017f5461696c73000000000000000000000000000000000000000000000000000000815250610118565b6040518060400160405280600581526020017f48656164730000000000000000000000000000000000000000000000000000008152505b90507f1857cb2e931a9a7ab40a5c2fdd82833be115616346191ecae11a261dc67bdca78186868686604051610151959493929190610376565b60405180910390a1809550505050505090565b600081519050919050565b600082825260208201905092915050565b60005b8381101561019e578082015181840152602081019050610183565b60008484015250505050565b6000601f19601f8301169050919050565b60006101c682610164565b6101d0818561016f565b93506101e0818560208601610180565b6101e9816101aa565b840191505092915050565b6000602082019050818103600083015261020e81846101bb565b905092915050565b6000819050919050565b6000819050919050565b61023b61023682610216565b610220565b82525050565b600073ffffffffffffffffffffffffffffffffffffffff82169050919050565b600061026c82610241565b9050919050565b60008160601b9050919050565b600061028b82610273565b9050919050565b600061029d82610280565b9050919050565b6102b56102b082610261565b610292565b82525050565b60006102c7828661022a565b6020820191506102d7828561022a565b6020820191506102e782846102a4565b601482019150819050949350505050565b7f4e487b7100000000000000000000000000000000000000000000000000000000600052601260045260246000fd5b600061033282610216565b915061033d83610216565b92508261034d5761034c6102f8565b5b828206905092915050565b61036181610216565b82525050565b61037081610261565b82525050565b600060a082019050818103600083015261039081886101bb565b905061039f6020830187610358565b6103ac6040830186610358565b6103b96060830185610367565b6103c66080830184610358565b969550505050505056fea2646970667358221220ac5e808df8602c03d4f7991b2e9e784ad17c99469bb7ad0d67123af901b2fce264736f6c63430008180033",
  "linkReferences": {},
  "deployedLinkReferences": {}
}